:020000040000fa
:080000000001040000000000f3
:020000040000fa
:0400080028050000c7
:020000040000fa
:04000c003a050000b1
:020000040000fa
:040010004a0500009d
:020000040000fa
:0400140030050000b3
:020000040000fa
:04001800420500009d
:020000040000fa
:04001c004a05000091
:020000040000fa
:040020004a0500008d
:020000040000fa
:040024004a05000089
:020000040000fa
:040028004a05000085
:020000040000fa
:04002c004a05000081
:020000040000fa
:040030004a0500007d
:020000040000fa
:04003400fa040000ca
:020000040000fa
:040038004a05000075
:020000040000fa
:04003c004a05000071
:020000040000fa
:040040004a0500006d
:020000040000fa
:040044004a05000069
:020000040000fa
:040048004a05000065
:020000040000fa
:04004c004a05000061
:020000040000fa
:040050004a0500005d
:020000040000fa
:040054004a05000059
:020000040000fa
:040058004a05000055
:020000040000fa
:04005c004a05000051
:020000040000fa
:040060004a0500004d
:020000040000fa
:040064004a05000049
:020000040000fa
:040068004a05000045
:020000040000fa
:04006c003a02000054
:020000040000fa
:040070004a0500003d
:020000040000fa
:04007400c0040000c4
:020000040000fa
:040078004a05000035
:020000040000fa
:04007c004a05000031
:020000040000fa
:040080004a0500002d
:020000040000fa
:040084004a05000029
:020000040000fa
:040088004a05000025
:020000040000fa
:04008c004a05000021
:020000040000fa
:040090004a0500001d
:020000040000fa
:040094004a05000019
:020000040000fa
:040098004a05000015
:020000040000fa
:04009c004a05000011
:020000040000fa
:0400a0004a0500000d
:020000040000fa
:0400a4004a05000009
:020000040000fa
:0400a8004a05000005
:020000040000fa
:0400ac004a05000001
:020000040000fa
:0400b0004a050000fd
:020000040000fa
:0400b4004a050000f9
:020000040000fa
:0400b8004a050000f5
:020000040000fa
:0400bc004a050000f1
:020000040000fa
:0400c0004a050000ed
:020000040000fa
:0400c4004a050000e9
:020000040000fa
:0400c8004a050000e5
:020000040000fa
:0400cc004a050000e1
:020000040000fa
:0400d0004a050000dd
:020000040000fa
:0400d4004a050000d9
:020000040000fa
:0400d8004a050000d5
:020000040000fa
:0400dc004a050000d1
:020000040000fa
:0400e0004a050000cd
:020000040000fa
:0400e4004a050000c9
:020000040000fa
:0400e8004a050000c5
:020000040000fa
:0400ec004a050000c1
:020000040000fa
:0400f0004a050000bd
:020000040000fa
:0400f4004a050000b9
:020000040000fa
:0400f8004a050000b5
:020000040000fa
:0400fc001c020000e2
:020000040000fa
:040100004a050000ac
:020000040000fa
:040104004a050000a8
:020000040000fa
:040108004a050000a4
:020000040000fa
:04010c004a050000a0
:020000040000fa
:040110004a0500009c
:020000040000fa
:040114004a05000098
:020000040000fa
:040118004a05000094
:020000040000fa
:04011c004a05000090
:020000040000fa
:040120004a0500008c
:020000040000fa
:040124004a05000088
:020000040000fa
:040128004a05000084
:020000040000fa
:04012c004a05000080
:020000040000fa
:040130004a0500007c
:020000040000fa
:040134004a05000078
:020000040000fa
:040138004a05000074
:020000040000fa
:04013c004a05000070
:020000040000fa
:040140004a0500006c
:020000040000fa
:040144004a05000068
:020000040000fa
:040148004a05000064
:020000040000fa
:04014c004a05000060
:020000040000fa
:040150004a0500005c
:020000040000fa
:040154004a05000058
:020000040000fa
:040158004a05000054
:020000040000fa
:04015c004a05000050
:020000040000fa
:040160004a0500004c
:020000040000fa
:040164004a05000048
:020000040000fa
:040168004a05000044
:020000040000fa
:04016c004a05000040
:020000040000fa
:040170004a0500003c
:020000040000fa
:040174004a05000038
:020000040000fa
:040178004a05000034
:020000040000fa
:04017c004a05000030
:020000040000fa
:040180004a0500002c
:020000040000fa
:040184004a05000028
:020000040000fa
:040188004a05000024
:020000040000fa
:04018c004a05000020
:020000040000fa
:040190004a0500001c
:020000040000fa
:040194004a05000018
:020000040000fa
:040198004a05000014
:020000040000fa
:04019c004a05000010
:020000040000fa
:0401a0004a0500000c
:020000040000fa
:0401a4004a05000008
:020000040000fa
:0401a8004a05000004
:020000040000fa
:0401ac004a05000000
:020000040000fa
:0401b0004a050000fc
:020000040000fa
:0401b4004a050000f8
:020000040000fa
:0401b8004a050000f4
:020000040000fa
:0401bc004a050000f0
:020000040000fa
:0401c0004a050000ec
:020000040000fa
:0401c4004a050000e8
:020000040000fa
:0401c8004a050000e4
:020000040000fa
:0401cc004a050000e0
:020000040000fa
:0401d0004a050000dc
:020000040000fa
:0401d4004a050000d8
:020000040000fa
:0401d8004a050000d4
:020000040000fa
:0401dc004a050000d0
:020000040000fa
:0401e0004a050000cc
:020000040000fa
:0401e4004a050000c8
:020000040000fa
:0401e8004a050000c4
:020000040000fa
:0401ec004a050000c0
:020000040000fa
:0401f0004a050000bc
:020000040000fa
:0401f4004a050000b8
:020000040000fa
:0401f8004a050000b4
:020000040000fa
:0401fc004a050000b0
:020000040000fa
:100200006ffc20000e7f24000e018800000000001b
:10021000000020000000e000020032000001200089
:100220002002880014000700550207000000e000cb
:1002300003003a004055270001002000020037006b
:100240000000200001002000810f7000010032003a
:1002500014000700000020000000e000020032004f
:1002600000000200000000005079020000000000c1
:100270000040da000000fe004440a90000c9200050
:100280000000e00003003200002020009001880000
:100290004440a800000006008a1f78008b1f7800e9
:1002a00000000600a1028800800478000000eb0036
:1002b0001f003700e284440054a0b4009905ba003e
:1002c000e284440054a0b4009906ba00e2844400d9
:1002d00054a0b4000006eb00476fde00fd07b2003b
:1002e000ae018800636ce10003003a00eaff0700fa
:1002f0000000eb000e003700606ce10008003a00df
:10030000004deb000a05e800020039003420ec0043
:100310000af0a0008b05e900f9ff3e000400370059
:100320006168e100010032000086eb000b0007006d
:1003300019c7ba001905ba000e04e00003003a001c
:100340000a00e000dbff3a0000000600fe07b200f2
:10035000ae0288008a047800f5ff37000cd0a300b5
:10036000e20f4d001c00390089027800354dba00bb
:100370000a05e800020039003420ec000af0a00071
:100380008b05e9000f003200254dba000a05e80090
:10039000020039003420ec000af0a0008b05e900cf
:1003a000080032000c00e0000600320015cdba0053
:1003b0000a05e800020039003420ec000af0a00031
:1003c0008b05e9008984e80054a0b4000b00e0002c
:1003d000e2ff3a00000006009902ba00055d7800cd
:1003e0008b05e900f7ff3200c82ade00055d7800c2
:1003f0008b05e900f3ff32000c00e000f1ff320052
:1004000019ddba00eeff37008a6a04000000000020
:1004100040680400000000009c6804000000000028
:10042000da0a0400000000007e0a04000000000058
:10043000d6060400000000003600f800809fbe00d1
:10044000829fbe00849fbe00869fbe000000fa000f
:10045000492f07008ea0a9000080fa004f03be00bc
:100460004f02be004f01be004f00be003600f90033
:10047000004006003600f800809fbe00829fbe004c
:10048000849fbe00869fbe000000fa008a20a9005b
:10049000f124800000082000008060000000e000df
:1004a000090032009ee4a9000828ef007040800097
:1004b00064004000100078008000eb000108780024
:1004c0000e28ef0027013700404080008000eb003d
:1004d000b200200003002000820f5000838f5800dc
:1004e00014013e00006001000b0037004700370098
:1004f00087003700b00037000b013700de003700ff
:10050000f100370008013700f30037000901370018
:100510004200370060003700008020006400400087
:1005200010007800620060000000e0000c013a005a
:10053000008020000080e8001000780070408800f3
:10054000008020000080e800100078001040780053
:100550000ae8b700008020000080e8001000780062
:100560000080e800100078006040880000802000d3
:100570000080e80010007800e600400000802000c5
:100580000080e80001087800008020000080e8007a
:1005900090007800c0f92000808f500004003a00dd
:1005a0000080200061f920000080e8000108780048
:1005b00000802000e4004000910078000100a100cc
:1005c0006400400001087800008020000080e800fe
:1005d000900078000080200010007800808f50008c
:1005e00006003a0000802000e400400091007800fe
:1005f0000110a00064004000010878009a04a800df
:100600002000200040408800d60037009a24a8002f
:100610002000200040408800d2003700f1248000f4
:1006200000002800008060000000e0000a003200a6
:100630000080200066004000104078008040e80004
:100640000080200066004000014878004000200043
:1006500022360700c3003700804080008000d100b0
:10066000f00f200000806000b024880080408000ef
:1006700061006000004078000004e00003003200e8
:10068000b000200040408800b60037003000200055
:1006900040408800b3003700f124800000002800ab
:1006a000008060000000e0000a00320000802000ae
:1006b00066004000104078008040e8000080200084
:1006c0006600400001487800400020000336070023
:1006d000a40037009a24a800804080004800de0073
:1006e000e6006000000f20000100700080408800dc
:1006f000804080000000a0008040880010c0b3004f
:1007000012e8b70020002000404088009500370024
:1007100012c8bf00e14f50000c0032006040800062
:100720001000780080408800604080006400400035
:1007300010007800a0408800604080000080e80041
:100740001040780016e8b700010037001268ef008b
:1007500081408000f00f2000808f5000090036009b
:10076000804080004800de00e6006000000f2000ae
:1007700001007000b0248800a000200040408800e4
:100780007800370080408000b024880080408000de
:1007900061006000004078000004e00003003200c7
:1007a00050002000404088006e00370030002000dc
:1007b000404088006b003700f124800000002800d2
:1007c000008060000000e0000b003200008020008c
:1007d00066004000104078008040e8000080200063
:1007e00066004000014878009fe4a9005000200006
:1007f000ba3507005b00370016c8bf008080fb00d9
:100800008100e900cf08de00814078000040e90067
:1008100016e8b7000104e0001000320060408000dc
:1008200066004000604088000ac8bf000040e90040
:100830000ae8b7000ac8bf000004e00003003a005d
:1008400020002000a5350700460037009a24a800a4
:10085000200020004040880042003700a040800077
:10086000904078008180fb00b12488000000e800ff
:10087000a04088003b003700f124800000002800e1
:10088000008060000000e0000b00320000802000cb
:1008900066004000104078008040e80000802000a2
:1008a0006600400001487800400020008b350700ba
:1008b0009fe4a9002b0037009a64a8008000200064
:1008c000404088002700370080002000404088001a
:1008d0009a64a80023003700a0408000a124800073
:1008e00081407800014878000000e800a0408800be
:1008f00016c8bf000040e90016e8b70016c8bf00e0
:100900000004e000040032009aa4a9006000200066
:1009100040408800020037009aa4a8005e35070016
:100920009a84a8000f003700200020006b350700d4
:100930000c00370000802000660040001040780066
:100940008040e800008020006600400001487800f8
:100950006000200061350700000000000100370042
:10096000000000000080fa004f03be004f02be00ee
:100970004f01be004f00be003600f90000400600e7
:100980003600f800809fbe00829fbe00849fbe009c
:10099000869fbe000000fa005004800068006000de
:1009a0000000e0000c0032008a60a9008133800062
:1009b00000002100008060000000e000060032001e
:1009c0007186a900a04280000000e0000200320011
:1009d000a0428000000001000080fa004f03be002a
:1009e0004f02be004f01be004f00be003600f900ae
:1009f000004006003600f800809fbe00829fbe00c7
:100a0000849fbe00869fbe000000fa009c3907004c
:100a100010fc2000104078008040e80010fc20000e
:100a20000148780000fc200011c0b30001487800a4
:100a30008860a9000080fa004f03be004f02be008c
:100a40004f01be004f00be003600f9000040060016
:100a50003600f8008020a9000000eb004e3a0700a5
:100a60003600f800503a07008040a900100020002e
:100a7000493a07003600f8008060a90020002000f5
:100a8000453a07003600f8008080a90030002000b9
:100a9000413a07000040da000000fe00ec87470002
:100aa0008e1f78006c87570044002000041f7800d8
:100ab000000f78006c87570002afbe00e1bf9f00b7
:100ac0006c805700980907001e00be004f07780091
:100ad000cf00b100000006000800fa008e81e80097
:100ae000800978006400470001087800660047002c
:100af0000208780000000000d11c800000102000d7
:100b0000008060000000e000fbff3200660047004c
:100b1000100f78001300370000000000d11c800087
:100b200000102000008060000000e000fbff3200a9
:100b300064004700100078001040780058e8b700c3
:100b400064004700100078008000e800640047005f
:100b50000108780058c8bf000000fb00e01c8800b6
:100b60001e0fe9001e0078000000e000eaff3a00d6
:100b700066004700100078000080fa0000000600c0
:100b800000000500020007000400be00000006008f
:100b90006022b800060220000000d0008180d20050
:100ba0000482d2008582d2000000a000020252001e
:100bb00083825a00030031000202420083824a000d
:100bc0000000a1000603e900f3ff3a000000060060
:100bd0008001780002003700b15978000201e90075
:100be0000200e000fcff3a0000000600889fbe0003
:100bf0008a9fbe00800478000200e0005a003200a4
:100c000001407800814c780082814400f1f99f0016
:100c1000e20f51005400360091449800a14498001e
:100c2000e1f99f00d1f99f00e60f51004e00360018
:100c3000b1449800c1f99f00e80f51004a00360006
:100c40000905ea00630565000a8444000a055100ad
:100c5000c1ff2f00010565000080fb008000eb0054
:100c6000121020001310200029090700008cbe007c
:100c70000a01440060b99f0071b99f00e80f550058
:100c80003900360020049800310498004004980090
:100c90005104980020b99f0031b99f0040b99f00ce
:100ca00051b99f00f80f55002f00360060049800de
:100cb00071049800000c9800110c9800200c98000a
:100cc000310c9800400c9800510c980020b19f0006
:100cd00031b19f0040b19f0051b19f0060b19f00b2
:100ce00071b19f0000b99f0011b99f0064016400b9
:100cf0007801410002044400020555006011b8006b
:100d00000203be000002be000403be006022b80061
:100d10000000720081807200020173008381730001
:100d20000f00370008027800009abe00029abe0049
:100d3000009abe000292be00000c9800110c9800b0
:100d4000220c9800330c9800400c9800510c98002d
:100d5000620c9800730c98000a02b1000802b000ff
:100d6000ff0f5500efff3e00090078004f05be0061
:100d70004f04be0000000600c1788000910078009a
:100d80003e020700110020000000e00005003500d1
:100d9000c078800090007800a0002000b902070011
:100da000cf00de000100ea0000000600000006009f
:100db000e0f1200000000600fdff0700e078880059
:100dc000d07888000000060080007800040037001a
:100dd0003104e00002003a0000005100000006006b
:100de000010178000108a300f9ff3a0081017800b1
:100df00031017800f4ef2f00020242000281ea0084
:100e0000020162000408280004016100f7ff3200bb
:100e100083007800010178003104e000fdff3a0012
:100e20000000510000000600114290000482fb0007
:100e30009180fb00c808dd0004827000800078000b
:100e4000d181fb001081fb004811dd00030171001e
:100e5000030037004811dd001180fb000201700023
:100e6000010078003104e00004003200840f5100da
:100e7000f8ff3a000000e90000000600000005004d
:100e8000114390008683fb00060020001181fb00c7
:100e90008001eb00c811dd00020020000203730096
:100ea00083837300214190004811dd008001eb0035
:100eb00002037300838373008080e8001041900078
:100ec0008281fb00020020001082fb008002eb0008
:100ed000c822dd000400200004017100858171003a
:100ee0001182fb004822dd008002eb00040171004a
:100ef00085817100080037001182fb008002eb0041
:100f000004027100858271004829dd00c821de00dd
:100f1000830171004821dd00010078003104e00008
:100f200005003200860f5100878f5900f2ff3a000a
:100f30000080e9000000060000000500889fbe0058
:100f4000314290000482fb008002eb000101780036
:100f50003283fb008003eb00c833dd000600200075
:100f600006037200878372001281fb008001eb0090
:100f7000c011dd00020020000203730083837300b0
:100f8000214190004811dd008001eb000203730055
:100f900083837300e30040001182fb008002eb00ba
:100fa000800178003384fb008004eb00c844dd003e
:100fb0000800200008047200898472001381fb007d
:100fc0008001eb00c012dd00040020000401740069
:100fd00085817400204290004822dd008002eb00f1
:100fe00006003700481add00c812de0085027200d4
:100ff0004812dd001181fb008001eb00020172004c
:1010000083817200010078003104e00005003200a5
:10101000860f5100878f5900f2ff3a00630050009d
:10102000010037000000eb004f04be000000060086
:101030008f22b000889fbe008a9fbe008c9fbe009a
:101040008e1f78000004780081057800c0dc2f0036
:101050000f0040000f0009000018eb000002b10073
:101060000b017800880078008004eb001000370046
:101070000080fb00c401de0083814100c4dc2f003e
:101080000f024200830142006f0260001500200041
:10109000042add00930972008584440000004000aa
:1010a000c7dc2f008f8343000080430009109800a5
:1010b000324078000004e00005003a001a002000e9
:1010c0000a0078000001eb008081eb001900370076
:1010d0003104e000e6ff3a00a20037000382450039
:1010e000e44278006bc2780084cf520005003a00d9
:1010f0008a0f50000c0032000000e80082007800e7
:101100000b00370084cf52000200360003855000e8
:10111000060037008200e800820178001a002000f3
:101120000a00780002003700000578001000200057
:101130000101780082004000898f5000e7ff3900ec
:1011400011002000010078000002eb008086eb0017
:10115000160037008d82450065437800eb42790028
:10116000854f530005003a00810f50000c003200fb
:101170000000e800040178000b003700854f5300a1
:10118000020031008d005100060037000401e80024
:10119000840678001100200001007800020037006a
:1011a0008000780010002000020278000401400056
:1011b000890f5100e7ff39000d01e8000300e80046
:1011c000800f510002003600010578000100370051
:1011d000830678000d02e8008a804500040178004b
:1011e0000b00780084bf9f00800107000fba9700b2
:1011f0000000e000080032000905e9000d05550077
:101200008d0f5500010031000d0578000a05e8003a
:101210008001eb00010037008a8154000807780044
:101220000006eb0008005700890f50001400310041
:1012300089027800f503b300050178008000eb0017
:101240000e007800e3b79f0084bf9f00f5b79f00b2
:1012500036010700efb197000fba9700ffb2970071
:101260000000e0000500320088005000898f500027
:101270003c003900000778000100370005074700ef
:101280008900440071f897000080fb006f01600046
:10129000160020000233dd004401de00020141009f
:1012a000c7dc2f008f834300e7027900050163004c
:1012b0000d0032000000400000804300001090004c
:1012c000008054000a0032000300e00015003200e4
:1012d0000c00e000130032008a0f500011003100b2
:1012e0000a8054000f00370001047800ccff37005b
:1012f0000c007800840f56000300310004007800d1
:10130000010037000000e800eb4078000104e00035
:10131000060032006841780082cf5000f9ff3200a9
:101320000d00500000044400bdff37000d007800a0
:101330008000e8008c8f5000080036006b41780078
:10134000e84078000000e900814f5100f8ff3200ca
:101350000a04440003067800b2ff37000800780052
:10136000010037000000eb004f0778004f06be0079
:101370004f05be004f04be00ef1fb100af02b10029
:1013800000000600881f780001047800984078006b
:101390000104e000260032008100fb003b0607004c
:1013a0000000e00022003200984090000104e000bc
:1013b0001f003200904090000104e0001b0032004a
:1013c000a84090000104e00003003a008800780083
:1013d00095fe070016003700a04090000104e000d1
:1013e00012003200b84090000104e00003003a000f
:1013f00088007800a2fe07000d003700b040900082
:101400000104e00009003200c84090000104e0003f
:1014100003003a0088007800c8fe07000400370087
:101420008800780002ff0700010037000000eb0091
:101430004f04780000000600889fbe000004be0034
:101440000800e00003003a00187e80000800e00079
:10145000130032000800be004401070000044400ed
:101460001804e00004003a000000eb00107e880041
:10147000000478000a0037000800be0002010700df
:1014800000004400107e88001004e00002003200da
:101490000058eb00010037000000eb00107e8800d0
:1014a000080078004f04be0000000600889fbe00c0
:1014b0008a1f7800800478004900900002047800b8
:1014c000800f540001003600000478000801780005
:1014d0006a8544001a007800bdfd07001a00440028
:1014e000000d7800e8844400990c14000048eb00db
:1014f0004f0578004f04be00000006001000780081
:1015000075fd3700900190000388a30001003200b0
:10151000e6ff37000348a30001003a00f7ff070089
:1015200000000600889fbe008a1f78000004780033
:10153000010578000000eb000800e0001a0032000e
:10154000180090000058a3000c003200ea04440088
:1015500068009000990f100008003600b80990004c
:101560000001eb0082007800080078000300010011
:101570000080eb001900e0000b0032007400440012
:101580000008eb006c0044000008eb006a00440017
:101590000008eb000000eb000a00e000020032004f
:1015a000180078003a1d07004f0578004f04be0070
:1015b00000000600889fbe008a1f78000004be005d
:1015c0000000eb000800e000290032001800900045
:1015d0000058a300120032006a0544006800900021
:1015e0009a0f100008003600b80990000001eb00c7
:1015f0008200780008007800030001000080eb0002
:101600001a00e0001a003200740044000008eb00e9
:101610006c0044000008eb006a0044000008eb0086
:10162000780a900008109000800f520006003100e8
:101630000002520011002000cfa2de00612bb90091
:101640001800780015fd0700000220000800400087
:101650000008eb007e0044000008eb000000eb00f7
:101660000900e0000200320018007800081d0700a1
:101670004f0578004f04be0000000600889fbe00a2
:101680008a1f78008004780001057800090078003e
:10169000cdfd0700000478008a0178000801780079
:1016a00011002000090078000a000700800078007f
:1016b0000080eb00888f500001003a000000eb0032
:1016c0004f0578004f04be000000060010007800af
:1016d00001fd3700889fbe008a9fbe00810478000c
:1016e0000204780009c5b9000900e00001003a00d1
:1016f0000004eb000a017800800078000300780005
:101700007eff0700800078008a8f500003003200bf
:10171000110009008980d8000004780008007800d2
:101720004f05be004f04be00000006008180fb0094
:10173000010037000201e900800178000008a300e1
:10174000060032000200e000230032003082fb007d
:10175000810f5200f7ff3a00030037000000eb0052
:101760000200e0001e0032001380fb00810f5000d9
:101770001c00320014102000048ab9008402780092
:10178000010037000281e90003007800e10f5100f9
:101790000a00360033826a00f6ef2f00040343008c
:1017a0000482ea00040263000608280006026200c0
:1017b000f4ff3200010037000201e90080017800e7
:1017c0000200e000050032003082fb00810f520071
:1017d000f9ff3a0003003700000005000000eb00ad
:1017e000000006000300780000000600010037003a
:1017f0000201e9000200e0000500320030427800fa
:10180000b1417800834f5200f9ff320001003700e8
:10181000000005000480fb008381fb0003005000f2
:10182000000006000200fa000001780001007800c4
:10183000e2ff9f00900090000188a30006003200a4
:10184000ea01400093007800825878000280fb0093
:101850008109780009003700120020008f80e9001c
:1018600026ff0700800078000080eb000100e00008
:1018700002003200eff897000180fb000080fa00c0
:1018800000000600e7ff37002000fa00889fbe0036
:101890000004be00994078000104e000030032001b
:1018a000194090000004e00004003a008100fb00b1
:1018b00008007800650007002800370002022000b9
:1018c0008000eb00c0fd2f000f004000c7fc0700a8
:1018d000194078000004e00002003a008800780017
:1018e0000e0037008904e8000080fb00c400de0021
:1018f0006f006000120020000010dd0081804000b9
:10190000c2fd2f000f014100810041001100700055
:1019100080087800eeff3a00f0ff37000100780001
:10192000114178000204e0000c0032008100e80060
:101930000281fb00ef016100140020000322dd00a2
:101940004411de0002014100c5fd2f008f824200dc
:10195000e501790003016200f0ff32000800500049
:101960004f04be000080fa00000006002000fa00cc
:101970000f0178000202b1000f0009000019eb000e
:10198000914178000001eb000304e0002c003200dc
:10199000114190000204e00005003a008000780048
:1019a00001017800b1cf1100fdff320023003700a4
:1019b000114178000204e00002003a008000780043
:1019c0000e0037008100e8000281fb00c411de0038
:1019d0006f016100140020000221dd0083814100bd
:1019e00004fe2f000f024200830142001301710028
:1019f00082097800eeff3a00f0ff3700010178001d
:101a0000914178000304e0000c0032008100e800fe
:101a10008381fb006f82610015002000842add00b5
:101a2000c419de008381410006fe2f000f0343002e
:101a30006682790084816200f0ff3a000001510063
:101a4000020078000080fa0000000600881f78007d
:101a5000000478008180fb000a003a00080078004a
:101a6000d9fc070000004400220037001804e00001
:101a7000200032000804e8001081fb00810f5100b3
:101a80001c003200080078000808a300f7ff3a00a5
:101a900014102000048ab90008017800380078008a
:101aa000f5ef2f00808242008081ea00838262008d
:101ab000030828008382620007003a0000006a00e1
:101ac000f5ef2f00808242000080ea000080620073
:101ad00083016000f0ff3200020078001204e00091
:101ae000040032000201e8009081fb00818f510068
:101af000f9ff3a004f047800000006000000fa00e9
:101b0000cfb8970068815700c07880001000780037
:101b1000df0107000080fa00000006000400070053
:101b20005c000700900007000b010700330137003d
:101b3000ec874700889fbe008a9fbe008c9fbe0036
:101b40008e1f7800000678000104780018079000c6
:101b50002805900098067800cdb79f00b805900042
:101b60003202be002203be000400be000601be0019
:101b70004f18de006011b8008000eb00d0b79f0066
:101b8000e1b79f00f2b79f0083bf9f0080047800f9
:101b90000900e000060032006000b8006011b800e3
:101ba00004025000858258000603590087835900bb
:101bb0000e00e000020035000d10a100cdb79f001f
:101bc0000900e00005003a004fb097000028a3008c
:101bd00002003a000038a300020032008a00e90047
:101be000010037008a007800f8815700a200200029
:101bf00008007800860007000900e00003003a00b2
:101c0000cfb097000128a300080032000000e900cf
:101c100000814500b1c2b3000900e00001003200bc
:101c2000d1c2b30001497800050037000138a30094
:101c3000030032000000e90001c2b30081757800a2
:101c4000480190000201e900000151008080450038
:101c50004fb297008a0178000c007800ae010700af
:101c60009c0090000188a3000400320098009000be
:101c7000810f500001003d00010078004f077800ff
:101c80004f06be004f05be004f04be00cf00b1009e
:101c9000000006000200fa00889fbe008a9fbe0076
:101ca0000005780001047800020078001801900017
:101cb000a805900098007800b1bf9f00b80490007c
:101cc0000200e000020035000110a100b1bf9f003a
:101cd000ea815700820020008b0078003002be00ad
:101ce0002003be0008007800490007003fb99700b4
:101cf000f0006100030032000000e90001c3b300fe
:101d0000817478003fb99700e80061000300320059
:101d10000000e90001c2b30081747800480190001e
:101d20000201e90000015100808044003fba9700a1
:101d30008b0178000a007800770107009a00900074
:101d40000188a3000400320098009000810f500029
:101d500001003d00010078004f05be004f04be00a9
:101d60000080fa0000000600ea874700889fbe0056
:101d70008a9fbe008e1f7800000478000300780060
:101d80007287570084e2260055c72600049fbe00d4
:101d9000c3962200030f78006c875700004feb00ba
:101da00011059000a1049000910578000200e00068
:101db00002003200020778000100370072875700e6
:101dc0000000e00002003a000e007800fefb070071
:101dd0000a00e000030035008a0f500001003600c1
:101de0000a0078000b027800890178000001780071
:101df0008e00780008007800470107004f07780040
:101e00004f05be004f04be00af00b1000000060049
:101e1000f4874700889fbe008a9fbe008c9fbe004b
:101e20008e1f78000605be000404be0081bf9f001f
:101e300082b79f00f3b79f00b0009000e1b79f000a
:101e40001301780092b79f00900690004006900022
:101e50000c06e9000d00e00001003d001d0020001f
:101e6000efb197000c8041000048eb001e002000fd
:101e70001f0037000c06e9000fb09700cf80de008e
:101e80006109b900a0b79f00b1b79f00c2b79f001a
:101e9000d3b79f000203be000002be000800be00d0
:101ea0000a01be004b05070000077800efb097005d
:101eb0000c80400003c3b300034847008d06e900cf
:101ec0000fb897000000e90080bf9f002fb2970075
:101ed000bfb297004fb39700dfb397000800be0072
:101ee0000a01be00340507000205be000004be0062
:101ef0000c00e0000d003200e00f5400e08f5c00a9
:101f0000e00f5d00e08f5d00daff3a000d00e000b9
:101f1000d8ff3c008fb897000100e00003003400b8
:101f20001fb197000218a300d2ff3a000e00e00094
:101f300002003a00ffb197001340a1000c007800a6
:101f40004f0778004f06be004f05be004f04be008d
:101f50004f01b100000006000200fa00889fbe0099
:101f60008a9fbe0080047800010478000200780097
:101f7000180190002805900098007800b1bf9f00dc
:101f8000b80590000200e000020035000110a10039
:101f9000b1bf9f00ea815700a20020008a007800ac
:101fa0003002be002003be000800780098ff070042
:101fb000480190000201e9000001510080804500c5
:101fc0003fba97008a01780009007800d200070024
:101fd000990090000188a30004003200980090004e
:101fe000810f500001003d00010078004f05be0048
:101ff0004f04be000080fa0000000600fa87470088
:10200000889fbe008a9fbe008c9fbe008e1f7800f6
:10201000800478000104780082057800180190009f
:102020002805900018077800b80090000200e00032
:10203000020035000e10a100010037001200200040
:1020400070006700e0b79f00090032003b02be004d
:102050002b03be00e00f5200e08f5a00e00f5b0040
:10206000e08f5b00020032008a86e9000100370041
:102070008a067800e8026700f5b79f000100320089
:102080008d06e9003b02be002b03be00e4af9f00bb
:10209000f5af9f0086b79f0097b79f004806900056
:1020a0000c06e9000c8040000048eb00efb29700fe
:1020b0007fb297008903780081047800d8af9f0031
:1020c000020478008bbf9f008a05780003457800e2
:1020d0002a0037000c06e9006fab97006f00630021
:1020e000e90f500002003c000003b000010037007f
:1020f0007005b0000a03fb001604b100f90f53008d
:102100000c003e00000378000650a0001606b10047
:10211000f90f530007003e00b4b79f00a5b79f001a
:10212000c7b79f00e9020700cfb39700afb297008f
:102130003fb2970080747e000804e9008d06e90034
:102140006fa89700ffa897000fb197009fb1970065
:10215000460020008301d1000281d3008180d3009a
:102160000080d3000603e900faff3a00e0af9f00c9
:10217000f1af9f0082b79f0093b79f00e10f560019
:102180000f0036006fa89700ffa897000fb19700c7
:102190009fb19700e00f5000e08f5800e00f59000a
:1021a000e08f5900cbff3a000800e000c9ff3c0077
:1021b0000d00e000020034000e18a300c5ff3a0035
:1021c00089007800f4b79f00870478005fac97001f
:1021d0008a4178000b0578008fbd97000500e0006c
:1021e000100032003b02be002b03be00e4af9f0094
:1021f000f5af9f0086b79f0097b79f00e00f520092
:10220000e08f5a00e00f5b00e08f5b0005003200ba
:102210000c06e90083707e000c06e90000c3b300e1
:1022200080707e00ffb297000500e00003003200de
:102230000c06e90000c2b30080707e0048019000e7
:102240000201e9000c0151008c8040000e02780070
:102250008a017800090078002f000700990090009b
:102260000188a3000400320098009000810f500004
:1022700001003d00010078004f0778004f06be00c6
:102280004f05be004f04be00af01b10000000600c4
:102290000200fa00881f780000047800e2bf9f0067
:1022a0006481570008007800ce0107009800900074
:1022b0000148a300010032000080eb004f047800c9
:1022c0000080fa0000000600889fbe008a1f780088
:1022d000800478004900900002047800800f5400c8
:1022e0000100360000047800080178006a85440087
:1022f0001a00780036fa07001a004400000d780032
:10230000e8844400990c14000048eb004f05780065
:102310004f04be0000000600f2874700889fbe0001
:102320008a9fbe008c9fbe008e1f780080047800bc
:1023300001057800020478008305780061076200d7
:1023400002003a008b0f54000800390008017800a1
:102350008a007800090078006afc07008b0f54009f
:1023600002003900880578001e00370008865500f5
:102370000c017800f00f5600010036000201200029
:10238000010220007e80570018fa07008c067800b2
:102390000500370002012000fe8057000900780088
:1023a00058fc0700f0865600ef8f5600f9ff3e00fc
:1023b0004461de0000ff2f000091b90002014600d9
:1023c000fe805700090078004efc07000e00e00078
:1023d00004003a00080178008a00780009007800bb
:1023e00048fc07000b0078004f0778004f06be003e
:1023f0004f05be004f04be002f01b10000000600d3
:102400000000050000000500000005000001780044
:102410000040eb008080fb008180400003f820003a
:1024200063c278000404e00003003a0010f82000c2
:1024300060c078000000060092017800934f5200bf
:1024400004003a0010f8200060c078000309e8009a
:10245000010037000040e800ea4f5000edff360071
:1024600000000600f6874700889fbe008a9fbe00d6
:102470008c9fbe008e1f78008004780001047800d5
:1024800083057800040678000000eb00c0b79f00c9
:102490008080eb00d1b79f00e0b79f00f2b79f00ac
:1024a0000008200080bf9f0098007800010078009d
:1024b0000005eb00010037000a05e8003041780014
:1024c0000204e0000300320053c2b300834f510006
:1024d000f9ff3a000a00e000040032000a01780027
:1024e0000900780007fc0700180c45001807780061
:1024f00050c2b3009e4f100033013a000e07e800af
:102500000e0c780010003700cfb097000100a0003b
:102510000b003700cfb097000110a0000800370073
:10252000cfb097000120a00005003700cfb0970082
:102530000130a00002003700cfb097000140a0009a
:10254000c1b79f00000ce8001800780090407800a8
:10255000b2c2b30082cf5000f1ff320007003c004e
:1025600002c2b30082cf5000f0ff320032c2b3008b
:1025700082cf500007003a00efff3700d2c2b3000d
:1025800082cf5000e0ff320002c3b30082cf500080
:10259000e0ff3200a2c2b30082cf50000d003a002b
:1025a000000ce8001c80e900000e780010007800a4
:1025b000e0b79f000000e0000f003d00cfb09700a3
:1025c0000100a200c1b79f000000ea00e0b79f0031
:1025d0000900370080010700e0b79f0001003700c5
:1025e000000ce800180078009000fb000103b10027
:1025f000e98f5000faff36004fb097000008a300a3
:10260000020032000010a100c0b79f00180078003f
:10261000e1c2b30090cf100016003a008000eb003a
:10262000d1b79f000000e800000c7800a1c2b30001
:1026300090cf100006003a00000ce8001c80e90072
:10264000000e780010007800d0b79f000900370016
:1026500061010700d0b79f0001003700000ce800bf
:10266000180078009000fb000103b100e98f5000d2
:10267000faff36000800780064ff07008046780003
:10268000180078001000fb00890107009106200067
:10269000810f50003800320012003c00410620003b
:1026a000810f5000340032000a003c001106200067
:1026b000810f50002000320031062000810f5000b1
:1026c0009a00320051022000810f5000ae003a0003
:1026d000a700370071062000810f5000aa003c00bf
:1026e0008200370001072000810f50005c0032009b
:1026f00007003c00e1062000810f5000740032000a
:10270000f1062000810f50009f003a003900370089
:1027100051072000810f5000270032008107200060
:10272000810f50004200320031072000810f50001d
:1027300095003a00850037008d80fb000c01780081
:1027400000fe2f000f004000670107000000e000be
:102750009c00320018007800000ce80090417800de
:1027600002fe2f000f014100f88057000900780099
:1027700024ff07000e0037008d80fb008c017800dd
:102780001200200000fe2f000f004000750107001e
:102790000000e0008b003200180ce80002fe2f0061
:1027a0000f014100f880570009007800e0fc0700a5
:1027b00000054500840037008d80fb008c01780007
:1027c0000001eb0000fe2f000f0040006501070034
:1027d0000000e0007b003200180ce80002fe2f0031
:1027e0000f014100f880570009007800dafd07006a
:1027f000efff37008d80fb008c0178000001eb00bb
:1028000000fe2f000f004000560107000000e0000e
:102810006c003200180ce80002fe2f000f0141008e
:10282000f8805700090078001afd0700e0ff370024
:102830008d80fb008c0178000001eb0000fe2f0072
:102840000f004000470107000000e0005d0032007b
:1028500018007800000ce80090417800160037005e
:102860008c0178000001eb00010f200000fe2f001a
:102870000f0040003b0107000000e0005100320063
:10288000180ce8000fb097009fb097002fb1970089
:10289000bfb19700e00f5000e08f5800e00f5900e3
:1028a000e08f590003003a008001eb00a2f72000fe
:1028b0004000370083c7b30002fe2f000f01410024
:1028c000f880570009007800ccfd0700b8ff3700fa
:1028d0000b0145008d80fb008c01780000fe2f006d
:1028e0000f00400078010700360037008d80fb00a4
:1028f0000c01780000fe2f000f004000fa000700d6
:102900000000e0002f00320018007800000ce80002
:102910009041780002fe2f000f014100f88057001f
:1029200009007800b7fe0700a1ff370000c8b30018
:1029300080cf560023003a00180ce8001c80e90004
:10294000000e7800104078000d00370000c8b3007a
:1029500080cf56001b003a00180ce8001c80e900ec
:10296000000e78008001eb001001780011003700a4
:1029700001c8b30081cf560012003a00180ce800dd
:10298000e0df9f000800370050c2b300e0df9f0087
:102990000e0c78000000eb00c0b79f00e0b79f006e
:1029a0008080eb00d1b79f0013002000e2fd2f00d4
:1029b0000f014100f880570009007800eafc070089
:1029c0007bff3700180ce8000a0078004f077800fa
:1029d0004f06be004f05be004f04be006f01b100a0
:1029e000000006008200fa00889fbe008a1f78005f
:1029f0000005780082047800c13f9f000004eb00ce
:102a0000100037000902780088017800a2f72f0033
:102a10000f01410081f72f008f8040000a007800ed
:102a200090fe070008004000880f500004003d00a1
:102a3000b0042000207e88000084eb0004003700f2
:102a4000000478004f3897001004e000edff3a00d2
:102a5000080078004f0578004f04be000080fa009f
:102a6000000006000000fa00cfb897006881570008
:102a7000c07880001000780005fe07000080fa0092
:102a8000000006002afc070082fc070032fd070058
:102a90005afd0700b4fc37000000fa00cfb89700d9
:102aa00068815700070007000080fa000000060058
:102ab0001ffc070077fc0700abfc070026fd0700a2
:102ac0004efd37008201780001017800f1ff2700f8
:102ad00000003700f28747008e1f7800020278005e
:102ae000030178000000e0000200320000077800d7
:102af00001003700728757008002eb000100e00000
:102b0000010032008102e9007080570006000900d0
:102b10000018eb007280570000a8eb002310200083
:102b200093bf9f00aebf9f00b1bf9f00c5bf9f0076
:102b30000100e00004003d00b0042000207e880079
:102b40000080eb0005003700004feb00eebf9f0058
:102b5000debf9f0084007800cdfd07004f0778009e
:102b60002f01b100000006000000fa00cfb8970066
:102b700068815700d3ff07000080fa0000000600bc
:102b8000ebfb070043fc0700f3fc07001bfd0700fd
:102b900075fc37000000fa00cfb897006881570035
:102ba000c8ff07000080fa00000006006efc370036
:102bb000800078001000200002022000828f500068
:102bc00004003200e9805000e48f5000010036001c
:102bd0000000eb0000000600889fbe008a1f7800fe
:102be000800478000904780088047800394578006a
:102bf0000a00fb00eeff07000000e000f9ff3a00ca
:102c0000b0c2b300804f550005003200d0c2b300ff
:102c10008000eb00804f550005003a0002003700ad
:102c20008000eb0001003700110020000804e800dc
:102c30000000eb00030037006a02b90002005200f6
:102c40000003b0003801fb0003fd2f00828141002a
:102c5000e98f5100f8ff36000100e00001003a0062
:102c60000000ea004f0578004f04be000000060097
:102c7000881f78000004780008007800cc00070066
:102c8000080078004f04780000000600881f7800d4
:102c900001047800880078006cfb0700904f140056
:102ca000010032000000eb004f0478000000060035
:102cb000f1fb2f0080804000f98f500001003e00a2
:102cc0000050a00000000600f9ff3700f1f92f00c6
:102cd00080804000f98f500001003e00f005b200f6
:102ce00000000600f9ff3700881f78000004780014
:102cf00000082000808f50001700350010082000c9
:102d0000808f50000b00340030082000808f50006e
:102d100011003a00920078006880500000097800a5
:102d20003002be002003be00049cbe000694be001c
:102d30000700370092027800648052000009780092
:102d40001000be00be000700009cbe000294be0042
:102d500010002000010037000000eb004f04780055
:102d60000000060084082000848f50001d003200ff
:102d70000d003c0014082000848f50002700320012
:102d800002003c0004082000040037002408200052
:102d9000848f50002a00320044082000848f5000a5
:102da00048003a003b003700040a2000848f50009e
:102db0002c00320004003c0004092000848f5000e5
:102dc00040003a002d003700020c2000828f500096
:102dd0001e003200020f2000828f500039003a009e
:102de000300037009380e9000200e0000500320067
:102df000810978001102fb00cfa2de00612bb9002f
:102e00002d00370081097800114278000482fb0010
:102e10008002eb006033b80027003700130278000f
:102e2000e40052000200e0000a003200810978004c
:102e30001102be004fabde00860378001e00370093
:102e400093027800e88052000e0037009302780069
:102e5000e4805200810978001102be006033b8009e
:102e6000150037009380e90081097800110278008d
:102e7000cfa2de00612bb9000f00370013037800ea
:102e8000e8005300810978003102be002103be0032
:102e9000090037009380e9000200e00002003200e0
:102ea000f1ff37009380e900810978001102780072
:102eb0008002eb006033b8000498be000690be00ac
:102ec000100005000000050044082000848f500019
:102ed000270032000a003c0014082000848f5000b4
:102ee0001c00320024082000848f5000260032008d
:102ef00004082000848f50002c003a001c0037008a
:102f000004092000848f50001f00320004003c00a0
:102f100084082000848f500024003a000700370006
:102f2000040a2000848f500011003200040c20009d
:102f3000848f50001d003a00060037009380e9009e
:102f400081097800910078000108780082487800b3
:102f5000150037009380e90081097800910078001e
:102f600001087800cf91de008288be000e00370095
:102f70009380e900810978009100780001087800c9
:102f800082087800080037009380e9008109780002
:102f900091007800010878006112b900612bb90036
:102fa0008498be008690be00100005000000050059
:102fb0000101780080017800008268000408a30005
:102fc0000500320013003700324078008059780045
:102fd0000004e00014003200030278000208a3009d
:102fe000f9ff3a0003007800010037000318780069
:102ff00082007800b2017800f5ef2f008382420052
:103000000382ea00048262000508280005026200cb
:10301000f6ff320000027800314178000258780053
:103020000204e000fbff3a00040078000000060004
:103030000000060060f70700fdff0700fcff3700f7
:10304000810378001d0007000001be006000b80089
:103050000478a30013003a006220e10015003e004e
:103060000d0039008301d1000281d3008180d3009b
:103070008301d1000281d3008180d3008301d1007c
:103080000281d3008180d3000538b000c42add005e
:10309000f300b2008381720007f0a70003f0a000e4
:1030a0000000060083ff2700020020006110b90025
:1030b000f9ff370003ff2700f7ff3700c70ade00dc
:1030c000f107b200f50fb20008003200e1cf420074
:1030d000020032000170a00024000500810f700082
:1030e000010032000408050044000500810f700053
:1030f00002003a00140005008502e90000004000cb
:1031000081c04800fcff3b000170a00024000500c6
:10311000020ab900001bb9000200b8008100420099
:10312000810043000000060000c0da000000060035
:10313000889fbe008a9fbe0030044200b0844a00cf
:1031400030054b0090854b006000b1000898be0030
:103150000a90be000440e10005c8e10006d0e1008d
:1031600007d8e10002003100680040001008e800c4
:103170004f05be004f04be0000000600889fbe0041
:103180008a9fbe003004be002005be000418540013
:1031900005985c0006185d0007985d00110020008e
:1031a0000440e10005c8e10006d0e10007d8e100d5
:1031b000010039008000eb00108810004f05be00b0
:1031c0004f04be0000000600f4874700889fbe0041
:1031d0008a9fbe008c9fbe008e1f7800d0b79f00d4
:1031e000e1b79f00f2b79f0083bf9f000605be00b6
:1031f0000404be00cfae97000000eb00c0b79f00f4
:10320000b0b79f00a0b79f0090b79f0080b79f0006
:10321000000678004fb09700000140000000e00079
:1032200006003d003c0007000f074700450007006f
:103230000f004000beff0700050037003600070002
:103240000f0747003f0007000f004000cbff0700bb
:103250004fb797000e00e0000c0035005fb29700fa
:10326000efb297007fb397008fbb9700100020004c
:10327000010020006011b80000027200818272001b
:1032800002037300838373001c0007000c06e80030
:1032900001042000810f5600deff3a000e00e0001e
:1032a00005003d000802be000a03be0000fe2f001c
:1032b0000f0040009eff07000d00e00005003a00ef
:1032c0000fb297009fb297002fb39700bfb397003c
:1032d0000a0007005fb09700efb097007fb197003a
:1032e0008fb997004f0778004f06be004f05be000c
:1032f0004f04be004f01b1000000060001000700ae
:103300000000060094b79f00a5b79f00b6b79f00c6
:10331000c7b79f00000006009fb097004f08de006f
:1033200002017000a2b79f000fb097004f01de00ae
:10333000818040008100710091b79f000efe2f0038
:1033400000000600de0078004f09de0000004000ab
:103350000000710080b79f006fa897004f01de004a
:1033600081804000010f71000e0007004f3ade001f
:103370000000400004007000e0af9f00090007005b
:103380000402420085824a0006034b0087834b00fb
:10339000dcff07000802be000a03be0000fe2f008b
:1033a000000006001fb29700afb297003fb397002e
:1033b000cfb3970000000600881f78001800200097
:1033c000881f780080ff07008f87e9004f0478008e
:1033d00000000600801feb007bff07008f87e900dd
:1033e00000000600889fbe008a9fbe00e00f5000cc
:1033f000e08f5800e00f5900e08f59000c003d00ad
:103400006044b8006055b8000000540081805c0042
:1034100002015d0083815d00180020001500070097
:1034200008003d00180007000004eb00050037000d
:103430000004eb000f00070002003d00120007002f
:1034400018002000dcff07000800e0000600320042
:103450006022b8006033b8000000520081805a003a
:1034600002015b0083815b004f05be004f04be007c
:1034700000000600e00f5200e08f5a00e00f5b00f2
:10348000e08f5b00000006006044b8006055b800a3
:103490000402540085825c0006035d0087835d00a2
:1034a00000000600889fbe008a9fbe008c1f780027
:1034b000e00f5000e08f5800e00f5900e08f5900f6
:1034c0000d003d006044b8006055b8000000540095
:1034d00081805c0002015d0083815d001c00200092
:1034e0000820e10009a8e1000ab0e1000bb8e10002
:1034f0000d003d00080037000006eb00e00f520011
:10350000e08f5a00e00f5b00e08f5b0006003d009b
:103510006044b8006055b8000402540085825c0025
:1035200006035d0087835d00aaff07000c00e00032
:10353000060032006022b8006033b800000052007c
:1035400081805a0002015b0083815b004f06780096
:0c3550004f05be004f04be000000060046
:020000040000fa
:10355c000a570000494e000043310000353000008e
:10356c0030200000486f00007374000020440000fd
:10357c007269000076650000723a00000d000000d0
:10358c002020000043680000697000002049000002
:10359c00443a0000202000002020000020200000e1
:1035ac00202000002020000020200000202000000f
:1035bc0020200000202000002020000020250000fa
:1035cc00336c0000780d00000a0000002020000081
:1035dc0046690000726d00007761000072650000a2
:1035ec002056000065720000736900006f6e0000c9
:1035fc003a200000202000002020000020200000a5
:10360c00202000002020000020250000642e000057
:10361c00256400002e250000640d00000a00000047
:10362c002020000046690000726d000077610000e8
:10363c007265000020420000756900006c64000097
:10364c002044000061740000652f000054690000e4
:10365c006d6500003a2000002020000020250000ad
:10366c00732c000020250000730d00000a000000e0
:10367c002020000046690000726d00007761000098
:10368c0072650000204d0000696e000020440000af
:10369c00726900007665000072200000566500001b
:1036ac0072730000696f00006e3a00002025000064
:1036bc00642e0000256400002e250000640d00001f
:1036cc000a00000020200000486f00007374000006
:1036dc002044000072690000766500007220000032
:1036ec005665000072730000696f00006e3a0000ae
:1036fc0020200000202000002020000020200000be
:10370c0020250000642e0000256400002e250000fa
:10371c00640d00000a000000313500003a3300004f
:10372c00333a0000303300000046000065620000b0
:10373c00203100003920000032300000323300000c
:10374c0000200000204800006f730000742000006f
:10375c00447200006976000065720000204200008f
:10376c00756900006c640000204400006174000066
:10377c00652f0000546900006d6500003a200000c0
:10378c00257300002c200000257300000d0a00009a
:10379c000d0a000000660000616900006c65000005
:1037ac0064200000746f0000206c00006f6100004a
:1037bc006420000066690000726d000077610000f3
:1037cc007265000020660000726f00006d20000022
:1037dc00666c000061730000682e00000d00000094
:1037ec00546900006d650000206f000075740000c6
:1037fc00206600006f7200002077000061690000f5
:10380c00746900006e670000206600006f72000093
:10381c0020570000494e00004331000035300000b5
:10382c003020000066690000726d000077610000b6
:10383c0072650000207400006f200000727500009b
:10384c006e00000045520000524f0000523a00003a
:10385c00206900006e760000616c00006964000055
:10386c002077000069660000692000006f7000007e
:10387c00206300006f640000650d0000005b000019
:10388c006e6d000069200000737400006f70000002
:10389c005d3a0000205300005049000020660000f3
:1038ac006c61000073680000206400006973000004
:1038bc00616200006c650000206600006169000018
:1038cc006c0d000000720000657100007565000051
:1038dc00737400005f730000636100006e5f000092
:1038ec0073730000696400005f6c00006973000072
:1038fc00743a000020660000616900006c650000ed
:10390c00640d0000004900004e560000414c0000c0
:10391c0049440000205000004f4900004e54000064
:10392c0045520000004900004e560000414c00007a
:10393c00494400002053000053490000440000009b
:10394c00494e0000564100004c4900004420000044
:10395c0043480000004900004e560000414c000056
:10396c00494400002044000048430000502000005f
:10397c0053450000525600004552000020490000fb
:10398c0050000000494e0000564100004c49000018
:10399c00442000004b45000059200000494e000017
:1039ac004445000058000000494e000056410000fc
:1039bc004c490000442000004b45000059200000f9
:1039cc0053540000524900004e47000020530000a1
:1039dc00495a000045000000494e000056410000c5
:1039ec004c490000442000005745000050200000c6
:1039fc004b45000059000000494e000056410000a4
:103a0c004c490000442000005750000041200000a9
:103a1c004b45000059200000534900005a45000056
:103a2c00004900004e560000414c00004944000083
:103a3c002041000055540000484500004e54000041
:103a4c004943000041540000494f00004e20000043
:103a5c004d4f000044450000004900006e76000008
:103a6c00616c000069640000207000006f69000048
:103a7c006e7400006572000052000000496e000078
:103a8c00766100006c690000642000004e75000037
:103a9c006d62000065720000206f0000662000005f
:103aac0073630000616e0000207300006c6f0000f7
:103abc00747300002128000025640000290d00000b
:103acc000a000000496e0000766100006c6900007d
:103adc006420000073630000616e0000207300001e
:103aec006c6f000074200000746900006d650000ac
:103afc00210d0000004900006e760000616c000092
:103b0c0069640000204e00006f2000006f6600000a
:103b1c0020700000726f00006265000020720000cf
:103b2c00657100007565000073740000732000005f
:103b3c00706500007220000073630000616e00006d
:103b4c00207300006c6f000074200000282500001a
:103b5c00642900000d0a0000004900006e76000088
:103b6c00616c000069640000205200005353000097
:103b7c004920000074680000726500007368000042
:103b8c006f6c00006420000025640000200d000014
:103b9c000a000000496e0000766100006c690000ac
:103bac00642000005365000063750000726900001a
:103bbc00747900002054000079700000650000004a
:103bcc00707600004175000074680000496e0000ba
:103bdc00666f000020630000616e00006e6f0000d5
:103bec007420000062650000204e0000554c00005f
:103bfc004c20000069660000206e00006f7400000d
:103c0c0020750000736900006e670000206f0000d3
:103c1c00706500006e200000736500006375000085
:103c2c0072690000747900000053000053490000d1
:103c3c00442000004c4500004e200000494e00007e
:103c4c00564100004c49000044000000434800006d
:103c5c00204900004e560000414c00004944000031
:103c6c00004900006e760000616c00006964000081
:103c7c002057000045500000206b000065790000c3
:103c8c00206900006e6400006578000020250000ab
:103c9c00640a0000004900006e760000616c0000b0
:103cac00696400002057000045500000206b0000a4
:103cbc0065790000206c0000656e000067740000e0
:103ccc0068200000256400000a000000496e000016
:103cdc00636f0000727200006563000074200000c6
:103cec00505300004b2000006b6500007920000051
:103cfc006c6500006e670000746800000000000036
:103d0c0000090000121b0000242d0000363f0000ab
:103d1c00484100005a5300006c6500007e7700009b
:103d2c00191000000b0200003d3400002f2600008b
:103d3c0051580000434a0000757c0000676e00007b
:103d4c00323b000020290000161f0000040d00006b
:103d5c007a730000686100005e5700004c4500005b
:103d6c002b220000393000000f0600001d1400004b
:103d7c00636a000071780000474e0000555c00003b
:103d8c00646d0000767f000040490000525b00002b
:103d9c002c2500003e370000080100001a1300001b
:103dac007d7400006f660000595000004b4200000b
:103dbc00353c0000272e000011180000030a0000fb
:103dcc00565f0000444d0000727b000060690000eb
:103ddc001e1700000c0500003a33000028210000db
:103dec004f4600005d5400006b62000079700000cb
:103dfc00070e0000151c0000232a000031380000bb
:103e0c0041480000535a0000656c0000777e0000aa
:103e1c00090000001b1200002d2400003f3600009a
:103e2c00585100004a4300007c7500006e6700008a
:103e3c0010190000020b0000343d0000262f00007a
:103e4c00737a000061680000575e0000454c00006a
:103e5c003b320000292000001f1600000d0400005a
:103e6c006a630000787100004e4700005c5500004a
:103e7c00222b000030390000060f0000141d00003a
:103e8c00252c0000373e000001080000131a00002a
:103e9c006d6400007f760000494000005b5200001a
:103eac003c3500002e270000181100000a0300000a
:103ebc00747d0000666f000050590000424b0000fa
:103ecc00171e0000050c0000333a000021280000ea
:103edc005f5600004d4400007b72000069600000da
:103eec000e0700001c1500002a23000038310000ca
:103efc00464f0000545d0000626b000070790000ba
:103f0c00496e0000766100006c69000064200000be
:103f1c006368000069700000207200006576000084
:103f2c002c200000657800007065000063740000b0
:103f3c0065640000202500006c7800002c20000037
:103f4c007265000061640000202500006c780000a0
:103f5c000a00000052650000736500007420000028
:103f6c00616e000064200000726500007472000035
:103f7c007920000025640000202500006c780000ea
:103f8c00202500006c7800000a000000526500003b
:103f9c007365000074200000616e00006420000056
:103fac007265000074720000792000002564000026
:103fbc000a0000005b6e00006d69000020730000b9
:103fcc00706900005d3a0000204600006169000045
:103fdc006c65000064200000636d0000642c000020
:103fec00207200006561000064200000626c00001b
:103ffc006f6300006b2000002825000030380000a3
:10400c00782900002e2e00002e0d00000a00000062
:10401c005b6e00006d690000207300007069000089
:10402c005d3a000020460000616900006c650000ec
:10403c0064200000636d00006420000072650000c5
:10404c00737000006f6e0000736500002c20000080
:10405c007265000061640000206200006c6f00005b
:10406c00636b000020280000253000003878000029
:10407c00292e00002e2e00000d0a0000005b00000f
:10408c006e6d00006920000073700000695d000017
:10409c003a20000046610000696c00006564000075
:1040ac00206200006c6f0000636b00002064000055
:1040bc006174000061200000726500006164000002
:1040cc002e2e00002e0d0000005200006573000023
:1040dc0065740000206100006e6400002072000016
:1040ec006574000072790000202500006420000037
:1040fc00256c0000782c000020250000780a0000b8
:10410c00005b00006e6d0000692000007370000001
:10411c00695d00003a20000046610000696c0000f7
:10412c0065640000206400006174000061200000e0
:10413c0072650000737000006f6e00007365000004
:10414c002072000065610000642c00002025000036
:10415c00782000002578000020250000780a000057
:10416c00005b00006e6d00006920000073700000a1
:10417c00695d00003a20000046610000696c000097
:10418c006564000020640000617400006120000080
:10419c0072650000737000006f6e000073650000a4
:1041ac002072000065610000642e00002e2e0000bd
:1041bc002825000030320000782900000d0a00008c
:1041cc00005b00006e6d0000692000007370000041
:1041dc00695d00003a20000046610000696c000037
:1041ec0065640000206300006d6400002c2000005a
:1041fc00777200006974000065200000626c00009a
:10420c006f6300006b200000282500003038000090
:10421c00782900002e2e00002e0d00000a00000050
:10422c005b6e00006d690000207300007069000077
:10423c00205d00003a20000046610000696c00001f
:10424c0065640000206300006d64000020720000b3
:10425c0065730000706f00006e730000652c000029
:10426c002077000072690000746500002062000075
:10427c006c6f0000636b00002028000025300000ec
:10428c0038780000292e00002e2e00000d0a0000a8
:10429c00005b00006e6d0000692000007370000070
:1042ac00695d00003a20000046610000696c000066
:1042bc0065640000206200006c6f0000636b0000fe
:1042cc00206400006174000061200000777200001f
:1042dc0069740000652e00002e2e00000d000000f9
:1042ec000d0a00003d3d00003d3d00003d3d00003d
:1042fc003d3d00003d0d00000057000065610000d1
:10430c007468000065720000204300006c690000b6
:10431c00656e000074200000446500006d6f0000a5
:10432c000d000000444500004d4f00005f410000af
:10433c005000000073730000696400003a20000014
:10434c00257300000d0a0000006100007069000078
:10435c002e6f0000706500006e7700006561000034
:10436c0074680000657200006d610000702e000022
:10437c006f72000067000000686f0000737400002b
:10438c003a200000257300000d0a000000700000a8
:10439c006f720000743a000020250000750d0000bb
:1043ac000a0000003d3d00003d3d00003d3d000089
:1043bc003d3d00003d0d0000004d0000414300005c
:1043cc0020610000646400007265000073730000db
:1043dc003d3e000020000000253000003258000057
:1043ec003a25000030320000583a00002530000019
:1043fc00325800003a25000030320000583a0000d4
:10440c0025300000325800003a2500003032000000
:10441c00580d00000a0000002d2d00002057000050
:10442c00494e0000433100003530000030200000c0
:10443c007765000061740000686500007220000060
:10444c00636c0000696500006e740000206500005c
:10445c00786100006d7000006c650000202d00007c
:10446c002d0d0000005300007461000072740000f8
:10447c00696e0000672000002e2e00002e0d00003b
:10448c0000310000323300003435000036370000b4
:10449c00380000006d610000696e00003a200000d9
:1044ac0066610000696c0000656400002074000007
:1044bc006f200000637200006561000074650000ed
:1044cc002054000043500000206300006c69000081
:1044dc00656e000074200000736f0000636b0000b9
:1044ec006574000020650000727200006f7200009d
:1044fc00210d0000006d0000616900006e3a0000a3
:10450c0020660000616900006c65000064200000fa
:10451c00746f0000206300006f6e00006e65000079
:10452c0063740000207300006f6300006b65000073
:10453c007420000065720000726f00007221000090
:10454c000d000000257300002049000050200000e1
:10455c006164000064720000657300007320000049
:10456c006973000020250000642e00002564000003
:10457c002e250000642e0000256400000d0a0000aa
:10458c000d0a000000260000617000007069000038
:10459c00643d0000633500003932000065310000d5
:1045ac00343100003337000063330000343700002f
:1045bc0031660000613900003632000037620000bd
:1045cc0034340000663600003634000039640000d4
:1045dc0062340000266d00006f640000653d000031
:1045ec00786d00006c260000756e00006974000088
:1045fc00733d00006d65000074720000696300007b
:10460c002048000054540000502f0000312e0000b0
:10461c00310d00000a4800006f730000743a00006e
:10462c0020610000706900002e6f000070650000b2
:10463c006e77000065610000746800006572000010
:10464c006d610000702e00006f720000670d00009d
:10465c000a4100006363000065700000743a0000ba
:10466c00202a00002f2a00000d0a00000d0a00006d
:10467c0000700000617200006973000000470000c8
:10468c0045540000202f000064610000746100009c
:10469c002f3200002e3500002f77000065610000de
:1046ac0074680000657200003f7100003d0000005e
:1046bc0025730000257300002573000000630000c3
:1046cc006f6e00006e6500006374000020650000d2
:1046dc00727200006f720000210d0000006e00006d
:1046ec00616d0000653d000000430000697400002e
:1046fc00793a000020000000223e00000025000056
:10470c00730d00000a000000746500006d7000005d
:10471c006572000061740000757200006520000075
:10472c00766100006c7500006500000054650000a7
:10473c006d700000657200006174000075720000fd
:10474c00653a0000200000004e2f0000410d0000d3
:10475c00002200002000000077650000617400005a
:10476c0068650000722000006e7500006d6200002c
:10477c00657200000057000065610000746800005d
:10478c0065720000204300006f6e00006469000039
:10479c00746900006f6e00003a2000000072000087
:1047ac00656300007620000065720000726f0000e7
:1047bc00722100000d000000436f00006e6e0000bf
:1047cc006563000074650000642000002d2d00005e
:1047dc00207300007461000072740000696e0000a8
:1047ec006720000044480000435000002063000094
:1047fc006c690000656e0000740d00000064000020
:10480c0069730000636f00006e6e0000656300004a
:10481c0074650000642000002d2d00002073000042
:10482c007461000072740000696e00006720000063
:10483c00636f00006e6e0000656300007420000062
:10484c0061670000616900006e0d00000049000006
:10485c005020000061640000647200006573000069
:10486c00732000006973000020250000752e0000e5
:10487c00257500002e250000752e00002575000002
:10488c000d0a0000000000002868000069660000a6
:10489c0029200000436f0000727200007570000048
:1048ac00746500006420000070610000636b000000
:1048bc006574000020530000697a00006520000038
:1048cc003d20000025750000203c00004c2000001d
:1048dc003d200000257500002c2000004720000022
:1048ec003d200000257500002c2000004f500000da
:1048fc00203d00002025000030320000583e000012
:10490c000d0a0000002800006869000066290000fc
:10491c00206900006e760000616c00006964000084
:10492c0020670000726f00007570000020490000c5
:10493c00440000002868000069660000292000007f
:10494c00686f00007374000020610000707000003c
:10495c0020640000696400006e27000074200000d1
:10496c0073650000742000005258000020440000c1
:10497c006f6e00006500000028680000696600008a
:10498c0029200000577200006f6e000067200000a5
:10499c00536900007a650000002800006869000077
:1049ac006629000020460000616c00007365000061
:1049bc00206900006e7400006572000072750000c2
:1049cc0070740000202500006c78000000200000ae
:1049dc0068690000665f0000726500006365000096
:1049ec0069760000653a0000204900006e760000f0
:1049fc00616c0000696400002061000072670000b7
:104a0c00756d0000656e00007400000041500000e0
:104a1c0050200000526500007175000065730000a5
:104a2c007465000064200000536900007a65000082
:104a3c0020690000732000006c61000072670000a8
:104a4c006572000020740000686100006e20000098
:104a5c00746800006520000072650000636500004a
:104a6c006976000065200000627500006666000033
:104a7c006572000020730000697a00006520000058
:104a8c003c250000643e00003c250000643e000014
:104a9c000d0a0000004100005050000020520000a0
:104aac00657100007565000073740000656400009a
:104abc002041000064640000726500007373000004
:104acc0020620000657900006f6e00006420000019
:104adc0074680000652000007265000063650000ca
:104aec0069760000652000006275000066660000b3
:104afc0065720000206100006464000072650000b3
:104b0c0073730000206100006e640000206c0000d4
:104b1c00656e0000677400006800000047520000da
:104b2c00702000003f200000256400000a000000f7
:104b3c00446900007363000061720000642000008f
:104b4c00726500006376000020630000616c000059
:104b5c006c620000616300006b20000025640000a3
:104b6c0020250000642000000d0a00000049000010
:104b7c006e760000616c0000696400002073000018
:104b8c006f6300006b650000742000006f70000004
:104b9c00206300006f640000650d000000450000fc
:104bac00525200004f5200003a20000057460000bd
:104bbc00506900006e6700002c200000696e000038
:104bcc00766100006c6900006420000061640000e4
:104bdc00647200006573000073000000534e000007
:104bec004920000045780000636500006564000002
:104bfc00732000004d610000782000004c6500001f
:104c0c006e67000074680000005500006e6b0000b9
:104c1c006e6f0000776e000020530000534c0000b4
:104c2c00205300006f6300006b65000074200000cf
:104c3c004f700000746900006f6e000020250000aa
:104c4c00640a0000004e00006f7400002053000046
:104c5c00534c0000205300006f6300006b65000094
:104c6c007400000020200000200a000045520000c3
:104c7c00524f00005220000045560000454e0000e7
:104c8c00543a0000202500006c7500000a0000005a
:104c9c004f740000615500007064000061740000e6
:104cac006543000062200000256400002025000000
:104cbc00640d00000a0000004f74000061550000f4
:104ccc007064000061740000654300006220000005
:104cdc006d3200006d5f00006f740000615f0000ba
:104cec007377000069740000636800005f66000061
:104cfc00697200006d770000617200006520000091
:104d0c007374000061720000742e00000d0000002e
:104d1c004f74000061550000706400006174000065
:104d2c00654300006220000046410000494c000031
:104d3c0020750000384f00007461000055700000b1
:104d4c00646100007465000053740000617400001d
:104d5c007573000020250000640d00000a0000009f
:104d6c004f540000412000005375000063630000a5
:104d7c00657300007320000021210000210d00004c
:104d8c00000000004461000074610000207300000a
:104d9c00697a0000652000003d20000025640000b9
:104dac0000430000616e00002774000020440000e6
:104dbc00657400006563000074200000466c000000
:104dcc006173000068200000736900007a650000c0
:104ddc000000000046610000696c00006564000082
:104dec00207400006f200000776100006b750000dc
:104dfc0070200000746800006520000063680000eb
:104e0c006970000000000000496e0000766100002f
:104e1c006c690000642000004f5400004120000029
:104e2c0072650000737000006f6e00007365000007
:104e3c0020250000640a000000000000256400002a
:104e4c002e250000642e0000256400002e25000095
:104e5c00640000002e000000200100003f00000054
:104e6c000000000020010000000000000000000015
:020000040000fa
:104e7c002800fa000040eb00004f78001ac8bf0071
:104e8c000080fb00e20f500017003200e20f5000d0
:104e9c0005003c000000e00006003200e10f50006d
:104eac000800320072003700e30f5000150032008a
:104ebc006f00370010c0b3001ae8b7001b68ef0092
:104ecc006b0037006d0007000004e0006300320047
:104edc001868ef00a31107001b68ef0020c0b30097
:104eec001ae8b70062003700b70007000004e000c2
:104efc005c0032001b68ef0030c0b3001ae8b7004a
:104f0c005b003700390107000004e0005700320055
:104f1c00f8240700e9210700f51c0700ce0b070059
:104f2c0040c0b3001ae8b7008000eb000000eb00b3
:104f3c00582607000e80e80078060700e0aa290032
:104f4c008aef07000e80e8001000be00809fbe00b4
:104f5c0060ac2900801f7800e5f20700e687570057
:104f6c0068004700104078000081fb006700470094
:104f7c00104078008080fb006600470010407800ed
:104f8c000080fb00821f7800811f7800801f780052
:104f9c00c0ae2900801f7800d5f20700e8875700c3
:104fac000e80e80076004000801f78000e80e8003c
:104fbc006a004000801f780060b12900801f7800d3
:104fcc00cbf20700e68757006b00470010407800d3
:104fdc000081fb006a004700104078008080fb00d5
:104fec0069004700104078000080fb00821f7800a9
:104ffc00811f7800801f7800e0b32900801f7800a3
:10500c00bbf20700e88757000000eb00801f780018
:10501c0030002000801f780030012000801f7800b5
:10502c0080b62900801f7800b1f20700e88757008e
:10503c0020b92900801f7800b0b92900801f7800a2
:10504c0070ba2900801f7800a9f20700e687570084
:10505c0010c0b300004f78000500370000000000be
:10506c0003003700000000000100370000000000c2
:10507c001e4078000080fa00000006000200fa00d2
:10508c000040eb00004f78001bc8bf000080fb0005
:10509c00e20f500025003200e20f500005003c00ea
:1050ac000000e00006003200e10f50000e0032005c
:1050bc0042003700e30f50002d0032003f00370054
:1050cc000000eb00692407000000eb0071240700ce
:1050dc0084240700204188003141880010c0b300af
:1050ec001be8b700350037002041800031418000bb
:1050fc00b12507000001be001000200001002000b7
:10510c00800f5100818f59002700360010002000bd
:10511c005624070073240700204188003141880081
:10512c0020c0b3001be8b7002400370020418000ea
:10513c0031418000a02507000001be005000200076
:10514c0001002000800f5100818f5900180036009b
:10515c00100020004f240700622407002041880023
:10516c003141880030c0b3001be8b7001300370092
:10517c0020418000314180008f2507000001be00d6
:10518c009000200001002000800f5100818f5900f9
:10519c000900360040c0b3001be8b70010c0b300d4
:1051ac00004f7800050037000000000003003700b6
:1051bc000000000001003700000000001e407800d5
:1051cc000080fa00000006000a00fa00889fbe006a
:1051dc008a9fbe000040eb00004f78001bc8bf0048
:1051ec000080fb00e10f50002a003200e10f50005c
:1051fc0003003c000000e0000400320076003700a1
:10520c00e20f5000430032007300370040012100d0
:10521c0001002000611607000e81e8000089be0025
:10522c000e80e8001000be00e00f5000e08f580028
:10523c0066003d00c07b20002100200057160700af
:10524c0000007800610060008005eb00000578002c
:10525c000a00be000e81e8000089be000e80e80046
:10526c001000be00e00f5000e08f580006003a001e
:10527c001c240700004188001141880010c0b300b5
:10528c001be8b7005400370020c0b3001be8b70080
:10529c0051003700c0002000c10020003f1607005d
:1052ac000e81e8000089be000e80e8001001be00ef
:1052bc00e0092d00d10a2100800f5100818f590087
:1052cc0003003a0020c0b3001be8b70042003700cf
:1052dc000041800011418000372507000001be000d
:1052ec004006200001002000800f5100818f5900e2
:1052fc003800360010bd29009cee0700400120004c
:10530c00010020008a06070030c0b3001be8b7007c
:10531c0031003700203521000133210066014700a0
:10532c000089be00660047001001be00c0082100c5
:10533c000100200023160700f62007000001be0024
:10534c00f0ff200001002000020278000301780029
:10535c008001780081007800030062008100610008
:10536c0081047800000478000801be00f0392000a8
:10537c0001002000800f5100818f59000b00360076
:10538c002000200001002000aa20070012f62200b5
:10539c0023f52e00c0002000c100200009160700d4
:1053ac0010c0b300004f78000b00370010bd29006f
:1053bc006eee0700b0012000010020005c06070023
:1053cc0030c0b3001be8b70003003700000000003a
:1053dc0001003700000000001e4078004f05be00a1
:1053ec004f04be000080fa00000006000600fa0020
:1053fc000040eb00004f78001bc8bf000080fb0092
:10540c00e10f50000a003200e20f50002c00320075
:10541c000000e0002d003a00b2230700e0408800b5
:10542c00f140880010c0b3001be8b700270037001c
:10543c00c008210001002000d81507000e81e800eb
:10544c000089be000e80e8001001be0060632200df
:10545c0031252000800f5100818f590007003a0040
:10546c006011b800c008210001002000d51507000c
:10547c0010c0b300004f780014003700e0408000eb
:10548c00f1408000cc2407000001be00800c2000fd
:10549c0001002000800f5100818f59000a00360056
:1054ac0060bf290031ee07005001200001002000f0
:1054bc001f06070020c0b3001be8b700030037002d
:1054cc000000000001003700000000001e407800c2
:1054dc000080fa00000006000a00fa000e82e800c4
:1054ec00004a780064004700010878006600470015
:1054fc000288be000e80e800104078000080fb009f
:10550c006101b900c0ff2f00f1ff2f000200400025
:10551c00838048000203200003002000820f50000b
:10552c00838f5800ac003e00006001007f00370004
:10553c00a900370042003700a7003700a60037004b
:10554c0083003700a4003700a3003700a200370007
:10555c00a1003700a00037009f0037009e003700e5
:10556c005f0037009c003700670037009a00370057
:10557c0099003700980037009700370096003700e5
:10558c009500370094003700220037009200370056
:10559c0091003700900037008f00370078003700fb
:1055ac008d0037008c0037008b0037008a003700e5
:1055bc0089003700880037008700370086003700e5
:1055cc00850037006b003700830037000800370078
:1055dc0081003700800037002f0037007e00370035
:1055ec007d0037001f0037007b0037003300370089
:1055fc0030002000000f78000042eb004300200038
:10560c0042eb2000660047001000be00561d07004c
:10561c007700370090002000000f78000042eb006c
:10562c008300200042eb2000660047001000be0003
:10563c004d1d0700a0758000a07588006c00370018
